{
  "_format": "hh-sol-artifact-1",
  "contractName": "FantaCuties",
  "sourceName": "contracts/FantaCuties.sol",
  "abi": [
    {
      "inputs": [],
      "stateMutability": "nonpayable",
      "type": "constructor"
    },
    {
      "inputs": [],
      "name": "ApprovalCallerNotOwnerNorApproved",
      "type": "error"
    },
    {
      "inputs": [],
      "name": "ApprovalQueryForNonexistentToken",
      "type": "error"
    },
    {
      "inputs": [],
      "name": "BalanceQueryForZeroAddress",
      "type": "error"
    },
    {
      "inputs": [],
      "name": "MintERC2309QuantityExceedsLimit",
      "type": "error"
    },
    {
      "inputs": [],
      "name": "MintToZeroAddress",
      "type": "error"
    },
    {
      "inputs": [],
      "name": "MintZeroQuantity",
      "type": "error"
    },
    {
      "inputs": [
        {
          "internalType": "address",
          "name": "operator",
          "type": "address"
        }
      ],
      "name": "OperatorNotAllowed",
      "type": "error"
    },
    {
      "inputs": [],
      "name": "OwnerQueryForNonexistentToken",
      "type": "error"
    },
    {
      "inputs": [],
      "name": "OwnershipNotInitializedForExtraData",
      "type": "error"
    },
    {
      "inputs": [],
      "name": "TransferCallerNotOwnerNorApproved",
      "type": "error"
    },
    {
      "inputs": [],
      "name": "TransferFromIncorrectOwner",
      "type": "error"
    },
    {
      "inputs": [],
      "name": "TransferToNonERC721ReceiverImplementer",
      "type": "error"
    },
    {
      "inputs": [],
      "name": "TransferToZeroAddress",
      "type": "error"
    },
    {
      "inputs": [],
      "name": "URIQueryForNonexistentToken",
      "type": "error"
    },
    {
      "anonymous": false,
      "inputs": [
        {
          "indexed": true,
          "internalType": "address",
          "name": "owner",
          "type": "address"
        },
        {
          "indexed": true,
          "internalType": "address",
          "name": "approved",
          "type": "address"
        },
        {
          "indexed": true,
          "internalType": "uint256",
          "name": "tokenId",
          "type": "uint256"
        }
      ],
      "name": "Approval",
      "type": "event"
    },
    {
      "anonymous": false,
      "inputs": [
        {
          "indexed": true,
          "internalType": "address",
          "name": "owner",
          "type": "address"
        },
        {
          "indexed": true,
          "internalType": "address",
          "name": "operator",
          "type": "address"
        },
        {
          "indexed": false,
          "internalType": "bool",
          "name": "approved",
          "type": "bool"
        }
      ],
      "name": "ApprovalForAll",
      "type": "event"
    },
    {
      "anonymous": false,
      "inputs": [
        {
          "indexed": true,
          "internalType": "uint256",
          "name": "fromTokenId",
          "type": "uint256"
        },
        {
          "indexed": false,
          "internalType": "uint256",
          "name": "toTokenId",
          "type": "uint256"
        },
        {
          "indexed": true,
          "internalType": "address",
          "name": "from",
          "type": "address"
        },
        {
          "indexed": true,
          "internalType": "address",
          "name": "to",
          "type": "address"
        }
      ],
      "name": "ConsecutiveTransfer",
      "type": "event"
    },
    {
      "anonymous": false,
      "inputs": [
        {
          "indexed": true,
          "internalType": "address",
          "name": "previousOwner",
          "type": "address"
        },
        {
          "indexed": true,
          "internalType": "address",
          "name": "newOwner",
          "type": "address"
        }
      ],
      "name": "OwnershipTransferred",
      "type": "event"
    },
    {
      "anonymous": false,
      "inputs": [
        {
          "indexed": true,
          "internalType": "address",
          "name": "from",
          "type": "address"
        },
        {
          "indexed": true,
          "internalType": "address",
          "name": "to",
          "type": "address"
        },
        {
          "indexed": true,
          "internalType": "uint256",
          "name": "tokenId",
          "type": "uint256"
        }
      ],
      "name": "Transfer",
      "type": "event"
    },
    {
      "inputs": [],
      "name": "OPERATOR_FILTER_REGISTRY",
      "outputs": [
        {
          "internalType": "contract IOperatorFilterRegistry",
          "name": "",
          "type": "address"
        }
      ],
      "stateMutability": "view",
      "type": "function"
    },
    {
      "inputs": [
        {
          "internalType": "address",
          "name": "operator",
          "type": "address"
        },
        {
          "internalType": "uint256",
          "name": "tokenId",
          "type": "uint256"
        }
      ],
      "name": "approve",
      "outputs": [],
      "stateMutability": "payable",
      "type": "function"
    },
    {
      "inputs": [
        {
          "internalType": "address",
          "name": "owner",
          "type": "address"
        }
      ],
      "name": "balanceOf",
      "outputs": [
        {
          "internalType": "uint256",
          "name": "",
          "type": "uint256"
        }
      ],
      "stateMutability": "view",
      "type": "function"
    },
    {
      "inputs": [
        {
          "internalType": "uint256",
          "name": "tokenId",
          "type": "uint256"
        }
      ],
      "name": "getApproved",
      "outputs": [
        {
          "internalType": "address",
          "name": "",
          "type": "address"
        }
      ],
      "stateMutability": "view",
      "type": "function"
    },
    {
      "inputs": [
        {
          "internalType": "uint256",
          "name": "_tierCode",
          "type": "uint256"
        }
      ],
      "name": "getPrice",
      "outputs": [
        {
          "internalType": "uint256",
          "name": "",
          "type": "uint256"
        }
      ],
      "stateMutability": "view",
      "type": "function"
    },
    {
      "inputs": [
        {
          "internalType": "address",
          "name": "owner",
          "type": "address"
        },
        {
          "internalType": "address",
          "name": "operator",
          "type": "address"
        }
      ],
      "name": "isApprovedForAll",
      "outputs": [
        {
          "internalType": "bool",
          "name": "",
          "type": "bool"
        }
      ],
      "stateMutability": "view",
      "type": "function"
    },
    {
      "inputs": [],
      "name": "isRevealed",
      "outputs": [
        {
          "internalType": "bool",
          "name": "",
          "type": "bool"
        }
      ],
      "stateMutability": "view",
      "type": "function"
    },
    {
      "inputs": [],
      "name": "maxAmountPerTx",
      "outputs": [
        {
          "internalType": "uint256",
          "name": "",
          "type": "uint256"
        }
      ],
      "stateMutability": "view",
      "type": "function"
    },
    {
      "inputs": [],
      "name": "maxSupply",
      "outputs": [
        {
          "internalType": "uint256",
          "name": "",
          "type": "uint256"
        }
      ],
      "stateMutability": "view",
      "type": "function"
    },
    {
      "inputs": [],
      "name": "name",
      "outputs": [
        {
          "internalType": "string",
          "name": "",
          "type": "string"
        }
      ],
      "stateMutability": "view",
      "type": "function"
    },
    {
      "inputs": [],
      "name": "owner",
      "outputs": [
        {
          "internalType": "address",
          "name": "",
          "type": "address"
        }
      ],
      "stateMutability": "view",
      "type": "function"
    },
    {
      "inputs": [
        {
          "internalType": "uint256",
          "name": "tokenId",
          "type": "uint256"
        }
      ],
      "name": "ownerOf",
      "outputs": [
        {
          "internalType": "address",
          "name": "",
          "type": "address"
        }
      ],
      "stateMutability": "view",
      "type": "function"
    },
    {
      "inputs": [],
      "name": "presaleActive",
      "outputs": [
        {
          "internalType": "bool",
          "name": "",
          "type": "bool"
        }
      ],
      "stateMutability": "view",
      "type": "function"
    },
    {
      "inputs": [
        {
          "internalType": "uint256",
          "name": "_quantity",
          "type": "uint256"
        },
        {
          "internalType": "uint256",
          "name": "_tierCode",
          "type": "uint256"
        },
        {
          "internalType": "bytes32[]",
          "name": "_merkleProof",
          "type": "bytes32[]"
        }
      ],
      "name": "presaleMint",
      "outputs": [],
      "stateMutability": "payable",
      "type": "function"
    },
    {
      "inputs": [],
      "name": "publicActive",
      "outputs": [
        {
          "internalType": "bool",
          "name": "",
          "type": "bool"
        }
      ],
      "stateMutability": "view",
      "type": "function"
    },
    {
      "inputs": [
        {
          "internalType": "uint256",
          "name": "_quantity",
          "type": "uint256"
        }
      ],
      "name": "publicMint",
      "outputs": [],
      "stateMutability": "payable",
      "type": "function"
    },
    {
      "inputs": [],
      "name": "renounceOwnership",
      "outputs": [],
      "stateMutability": "nonpayable",
      "type": "function"
    },
    {
      "inputs": [
        {
          "internalType": "uint256",
          "name": "_quantity",
          "type": "uint256"
        }
      ],
      "name": "reservedMint",
      "outputs": [],
      "stateMutability": "nonpayable",
      "type": "function"
    },
    {
      "inputs": [
        {
          "internalType": "uint256",
          "name": "_tokenId",
          "type": "uint256"
        },
        {
          "internalType": "uint256",
          "name": "_salePrice",
          "type": "uint256"
        }
      ],
      "name": "royaltyInfo",
      "outputs": [
        {
          "internalType": "address",
          "name": "",
          "type": "address"
        },
        {
          "internalType": "uint256",
          "name": "",
          "type": "uint256"
        }
      ],
      "stateMutability": "view",
      "type": "function"
    },
    {
      "inputs": [
        {
          "internalType": "address",
          "name": "from",
          "type": "address"
        },
        {
          "internalType": "address",
          "name": "to",
          "type": "address"
        },
        {
          "internalType": "uint256",
          "name": "tokenId",
          "type": "uint256"
        }
      ],
      "name": "safeTransferFrom",
      "outputs": [],
      "stateMutability": "payable",
      "type": "function"
    },
    {
      "inputs": [
        {
          "internalType": "address",
          "name": "from",
          "type": "address"
        },
        {
          "internalType": "address",
          "name": "to",
          "type": "address"
        },
        {
          "internalType": "uint256",
          "name": "tokenId",
          "type": "uint256"
        },
        {
          "internalType": "bytes",
          "name": "data",
          "type": "bytes"
        }
      ],
      "name": "safeTransferFrom",
      "outputs": [],
      "stateMutability": "payable",
      "type": "function"
    },
    {
      "inputs": [
        {
          "internalType": "address",
          "name": "operator",
          "type": "address"
        },
        {
          "internalType": "bool",
          "name": "approved",
          "type": "bool"
        }
      ],
      "name": "setApprovalForAll",
      "outputs": [],
      "stateMutability": "nonpayable",
      "type": "function"
    },
    {
      "inputs": [
        {
          "internalType": "string",
          "name": "baseURI",
          "type": "string"
        }
      ],
      "name": "setBaseURI",
      "outputs": [],
      "stateMutability": "nonpayable",
      "type": "function"
    },
    {
      "inputs": [
        {
          "internalType": "uint256",
          "name": "_maxAmountPerTx",
          "type": "uint256"
        }
      ],
      "name": "setMaxAmountPerTx",
      "outputs": [],
      "stateMutability": "nonpayable",
      "type": "function"
    },
    {
      "inputs": [
        {
          "internalType": "uint256",
          "name": "_maxSupply",
          "type": "uint256"
        }
      ],
      "name": "setMaxSupply",
      "outputs": [],
      "stateMutability": "nonpayable",
      "type": "function"
    },
    {
      "inputs": [
        {
          "internalType": "string",
          "name": "preRevealURI",
          "type": "string"
        }
      ],
      "name": "setPreRevealURI",
      "outputs": [],
      "stateMutability": "nonpayable",
      "type": "function"
    },
    {
      "inputs": [
        {
          "internalType": "uint256",
          "name": "_goldTierPrice",
          "type": "uint256"
        },
        {
          "internalType": "uint256",
          "name": "_silverTierPrice",
          "type": "uint256"
        },
        {
          "internalType": "uint256",
          "name": "_normalTierPrice",
          "type": "uint256"
        }
      ],
      "name": "setPrice",
      "outputs": [],
      "stateMutability": "nonpayable",
      "type": "function"
    },
    {
      "inputs": [
        {
          "internalType": "address payable",
          "name": "_royaltiesRecipientAddress",
          "type": "address"
        },
        {
          "internalType": "uint96",
          "name": "_percentageBasisPoints",
          "type": "uint96"
        }
      ],
      "name": "setRoyalties",
      "outputs": [],
      "stateMutability": "nonpayable",
      "type": "function"
    },
    {
      "inputs": [
        {
          "internalType": "bytes32",
          "name": "_merkleRoot",
          "type": "bytes32"
        }
      ],
      "name": "setWhitelistRoot",
      "outputs": [],
      "stateMutability": "nonpayable",
      "type": "function"
    },
    {
      "inputs": [
        {
          "internalType": "bytes4",
          "name": "interfaceId",
          "type": "bytes4"
        }
      ],
      "name": "supportsInterface",
      "outputs": [
        {
          "internalType": "bool",
          "name": "",
          "type": "bool"
        }
      ],
      "stateMutability": "view",
      "type": "function"
    },
    {
      "inputs": [],
      "name": "symbol",
      "outputs": [
        {
          "internalType": "string",
          "name": "",
          "type": "string"
        }
      ],
      "stateMutability": "view",
      "type": "function"
    },
    {
      "inputs": [],
      "name": "togglePresale",
      "outputs": [],
      "stateMutability": "nonpayable",
      "type": "function"
    },
    {
      "inputs": [],
      "name": "togglePublic",
      "outputs": [],
      "stateMutability": "nonpayable",
      "type": "function"
    },
    {
      "inputs": [],
      "name": "toggleReveal",
      "outputs": [],
      "stateMutability": "nonpayable",
      "type": "function"
    },
    {
      "inputs": [
        {
          "internalType": "uint256",
          "name": "_tokenId",
          "type": "uint256"
        }
      ],
      "name": "tokenURI",
      "outputs": [
        {
          "internalType": "string",
          "name": "",
          "type": "string"
        }
      ],
      "stateMutability": "view",
      "type": "function"
    },
    {
      "inputs": [],
      "name": "totalSupply",
      "outputs": [
        {
          "internalType": "uint256",
          "name": "",
          "type": "uint256"
        }
      ],
      "stateMutability": "view",
      "type": "function"
    },
    {
      "inputs": [
        {
          "internalType": "address",
          "name": "from",
          "type": "address"
        },
        {
          "internalType": "address",
          "name": "to",
          "type": "address"
        },
        {
          "internalType": "uint256",
          "name": "tokenId",
          "type": "uint256"
        }
      ],
      "name": "transferFrom",
      "outputs": [],
      "stateMutability": "payable",
      "type": "function"
    },
    {
      "inputs": [
        {
          "internalType": "address",
          "name": "newOwner",
          "type": "address"
        }
      ],
      "name": "transferOwnership",
      "outputs": [],
      "stateMutability": "nonpayable",
      "type": "function"
    },
    {
      "inputs": [],
      "name": "withdraw",
      "outputs": [],
      "stateMutability": "nonpayable",
      "type": "function"
    }
  ],
  "bytecode": "0x6080604052612710600c55600a600d5560405180606001604052806658d15e176280008152602001667c585087238000815260200166b1a2bc2ec50000815250600e60008201518160000155602082015181600101556040820151816002015550506000601160006101000a81548160ff0219169083151502179055506000601160016101000a81548160ff0219169083151502179055506000601160026101000a81548160ff021916908315150217905550348015620000bf57600080fd5b50733cc6cdda760b79bafa08df41ecfa224f810dceb660016040518060400160405280600b81526020017f46616e74614375746965730000000000000000000000000000000000000000008152506040518060400160405280600781526020017f46414e54415154000000000000000000000000000000000000000000000000008152506200016362000157620003a460201b60201c565b620003ac60201b60201c565b8160039081620001749190620006ef565b508060049081620001869190620006ef565b50620001976200047060201b60201c565b600181905550505060006daaeb6d7670e522a718067333cd4e73ffffffffffffffffffffffffffffffffffffffff163b1115620003945780156200025a576daaeb6d7670e522a718067333cd4e73ffffffffffffffffffffffffffffffffffffffff16637d3e3dbe30846040518363ffffffff1660e01b8152600401620002209291906200081b565b600060405180830381600087803b1580156200023b57600080fd5b505af115801562000250573d6000803e3d6000fd5b5050505062000393565b600073ffffffffffffffffffffffffffffffffffffffff168273ffffffffffffffffffffffffffffffffffffffff161462000314576daaeb6d7670e522a718067333cd4e73ffffffffffffffffffffffffffffffffffffffff1663a0af290330846040518363ffffffff1660e01b8152600401620002da9291906200081b565b600060405180830381600087803b158015620002f557600080fd5b505af11580156200030a573d6000803e3d6000fd5b5050505062000392565b6daaeb6d7670e522a718067333cd4e73ffffffffffffffffffffffffffffffffffffffff16634420e486306040518263ffffffff1660e01b81526004016200035d919062000848565b600060405180830381600087803b1580156200037857600080fd5b505af11580156200038d573d6000803e3d6000fd5b505050505b5b5b50506001600b8190555062000865565b600033905090565b60008060009054906101000a900473ffffffffffffffffffffffffffffffffffffffff169050816000806101000a81548173ffffffffffffffffffffffffffffffffffffffff021916908373ffffffffffffffffffffffffffffffffffffffff1602179055508173ffffffffffffffffffffffffffffffffffffffff168173ffffffffffffffffffffffffffffffffffffffff167f8be0079c531659141344cd1fd0a4f28419497f9722a3daafe3b4186f6b6457e060405160405180910390a35050565b600090565b600081519050919050565b7f4e487b7100000000000000000000000000000000000000000000000000000000600052604160045260246000fd5b7f4e487b7100000000000000000000000000000000000000000000000000000000600052602260045260246000fd5b60006002820490506001821680620004f757607f821691505b6020821081036200050d576200050c620004af565b5b50919050565b60008190508160005260206000209050919050565b60006020601f8301049050919050565b600082821b905092915050565b600060088302620005777fffffffffffffffffffffffffffffffffffffffffffffffffffffffffffffffff8262000538565b62000583868362000538565b95508019841693508086168417925050509392505050565b6000819050919050565b6000819050919050565b6000620005d0620005ca620005c4846200059b565b620005a5565b6200059b565b9050919050565b6000819050919050565b620005ec83620005af565b62000604620005fb82620005d7565b84845462000545565b825550505050565b600090565b6200061b6200060c565b62000628818484620005e1565b505050565b5b8181101562000650576200064460008262000611565b6001810190506200062e565b5050565b601f8211156200069f57620006698162000513565b620006748462000528565b8101602085101562000684578190505b6200069c620006938562000528565b8301826200062d565b50505b505050565b600082821c905092915050565b6000620006c460001984600802620006a4565b1980831691505092915050565b6000620006df8383620006b1565b9150826002028217905092915050565b620006fa8262000475565b67ffffffffffffffff81111562000716576200071562000480565b5b620007228254620004de565b6200072f82828562000654565b600060209050601f83116001811462000767576000841562000752578287015190505b6200075e8582620006d1565b865550620007ce565b601f198416620007778662000513565b60005b82811015620007a1578489015182556001820191506020850194506020810190506200077a565b86831015620007c15784890151620007bd601f891682620006b1565b8355505b6001600288020188555050505b505050505050565b600073ffffffffffffffffffffffffffffffffffffffff82169050919050565b60006200080382620007d6565b9050919050565b6200081581620007f6565b82525050565b60006040820190506200083260008301856200080a565b6200084160208301846200080a565b9392505050565b60006020820190506200085f60008301846200080a565b92915050565b61447a80620008756000396000f3fe6080604052600436106102305760003560e01c80636352211e1161012e578063aa585d56116100ab578063e75722301161006f578063e75722301461078c578063e985e9c5146107c9578063f26a981614610806578063f2fde38b1461082f578063f5aa406d1461085857610230565b8063aa585d56146106b6578063b88d4fde146106df578063c21b471b146106fb578063c87b56dd14610724578063d5abeb011461076157610230565b80638c74bf0e116100f25780638c74bf0e146105f75780638da5cb5b1461062057806395d89b411461064b578063981d877114610676578063a22cb4651461068d57610230565b80636352211e146105125780636f8b44b01461054f57806370a0823114610578578063715018a6146105b557806385b27c85146105cc57610230565b80632db11544116101bc57806342842e0e1161018057806342842e0e1461046057806353135ca01461047c57806354214f69146104a757806355f804b3146104d25780635b8ad429146104fb57610230565b80632db11544146103c057806334393743146103dc5780633ccfd60b146103f35780633f2981cf1461040a57806341f434341461043557610230565b806318160ddd1161020357806318160ddd146102f65780631b59169d1461032157806323b872dd1461033d5780632a55205a146103595780632a85db551461039757610230565b806301ffc9a71461023557806306fdde0314610272578063081812fc1461029d578063095ea7b3146102da575b600080fd5b34801561024157600080fd5b5061025c60048036038101906102579190612ba7565b610881565b6040516102699190612bef565b60405180910390f35b34801561027e57600080fd5b506102876108a3565b6040516102949190612c9a565b60405180910390f35b3480156102a957600080fd5b506102c460048036038101906102bf9190612cf2565b610935565b6040516102d19190612d60565b60405180910390f35b6102f460048036038101906102ef9190612da7565b6109b4565b005b34801561030257600080fd5b5061030b6109cd565b6040516103189190612df6565b60405180910390f35b61033b60048036038101906103369190612e76565b6109e4565b005b61035760048036038101906103529190612eea565b610d37565b005b34801561036557600080fd5b50610380600480360381019061037b9190612f3d565b610d86565b60405161038e929190612f7d565b60405180910390f35b3480156103a357600080fd5b506103be60048036038101906103b99190612ffc565b610f70565b005b6103da60048036038101906103d59190612cf2565b610f8e565b005b3480156103e857600080fd5b506103f16111a0565b005b3480156103ff57600080fd5b506104086111d4565b005b34801561041657600080fd5b5061041f61122b565b60405161042c9190612bef565b60405180910390f35b34801561044157600080fd5b5061044a61123e565b60405161045791906130a8565b60405180910390f35b61047a60048036038101906104759190612eea565b611250565b005b34801561048857600080fd5b5061049161129f565b60405161049e9190612bef565b60405180910390f35b3480156104b357600080fd5b506104bc6112b2565b6040516104c99190612bef565b60405180910390f35b3480156104de57600080fd5b506104f960048036038101906104f49190612ffc565b6112c5565b005b34801561050757600080fd5b506105106112e3565b005b34801561051e57600080fd5b5061053960048036038101906105349190612cf2565b611317565b6040516105469190612d60565b60405180910390f35b34801561055b57600080fd5b5061057660048036038101906105719190612cf2565b611329565b005b34801561058457600080fd5b5061059f600480360381019061059a91906130c3565b61133b565b6040516105ac9190612df6565b60405180910390f35b3480156105c157600080fd5b506105ca6113f3565b005b3480156105d857600080fd5b506105e1611407565b6040516105ee9190612df6565b60405180910390f35b34801561060357600080fd5b5061061e60048036038101906106199190612cf2565b61140d565b005b34801561062c57600080fd5b50610635611422565b6040516106429190612d60565b60405180910390f35b34801561065757600080fd5b5061066061144b565b60405161066d9190612c9a565b60405180910390f35b34801561068257600080fd5b5061068b6114dd565b005b34801561069957600080fd5b506106b460048036038101906106af919061311c565b611511565b005b3480156106c257600080fd5b506106dd60048036038101906106d8919061315c565b61152a565b005b6106f960048036038101906106f491906132df565b611555565b005b34801561070757600080fd5b50610722600480360381019061071d91906133e4565b6115a6565b005b34801561073057600080fd5b5061074b60048036038101906107469190612cf2565b6115bc565b6040516107589190612c9a565b60405180910390f35b34801561076d57600080fd5b50610776611712565b6040516107839190612df6565b60405180910390f35b34801561079857600080fd5b506107b360048036038101906107ae9190612cf2565b611718565b6040516107c09190612df6565b60405180910390f35b3480156107d557600080fd5b506107f060048036038101906107eb9190613424565b611752565b6040516107fd9190612bef565b60405180910390f35b34801561081257600080fd5b5061082d60048036038101906108289190612cf2565b6117e6565b005b34801561083b57600080fd5b50610856600480360381019061085191906130c3565b6117f8565b005b34801561086457600080fd5b5061087f600480360381019061087a919061349a565b61187b565b005b600061088c8261188d565b8061089c575061089b8261191f565b5b9050919050565b6060600380546108b2906134f6565b80601f01602080910402602001604051908101604052809291908181526020018280546108de906134f6565b801561092b5780601f106109005761010080835404028352916020019161092b565b820191906000526020600020905b81548152906001019060200180831161090e57829003601f168201915b5050505050905090565b600061094082611999565b610976576040517fcf4700e400000000000000000000000000000000000000000000000000000000815260040160405180910390fd5b6007600083815260200190815260200160002060000160009054906101000a900473ffffffffffffffffffffffffffffffffffffffff169050919050565b816109be816119f8565b6109c88383611af5565b505050565b60006109d7611c39565b6002546001540303905090565b6109ed33611c3e565b15610a2d576040517f08c379a0000000000000000000000000000000000000000000000000000000008152600401610a2490613599565b60405180910390fd5b3373ffffffffffffffffffffffffffffffffffffffff163273ffffffffffffffffffffffffffffffffffffffff1614610a9b576040517f08c379a0000000000000000000000000000000000000000000000000000000008152600401610a929061362b565b60405180910390fd5b610aa3611c51565b601160009054906101000a900460ff16610af2576040517f08c379a0000000000000000000000000000000000000000000000000000000008152600401610ae9906136bd565b60405180910390fd5b60001515601560003373ffffffffffffffffffffffffffffffffffffffff1673ffffffffffffffffffffffffffffffffffffffff16815260200190815260200160002060009054906101000a900460ff16151514610b85576040517f08c379a0000000000000000000000000000000000000000000000000000000008152600401610b7c9061374f565b60405180910390fd5b6000338585604051602001610b9c939291906137d8565b604051602081830303815290604052805190602001209050610c02838380806020026020016040519081016040528093929190818152602001838360200280828437600081840152601f19601f8201169050808301925050505050505060145483611ca0565b610c41576040517f08c379a0000000000000000000000000000000000000000000000000000000008152600401610c3890613887565b60405180910390fd5b600060028503610c5857600e600001549050610c77565b60018503610c6d57600e600101549050610c76565b600e6002015490505b5b8581610c8391906138d6565b341015610cc5576040517f08c379a0000000000000000000000000000000000000000000000000000000008152600401610cbc9061398a565b60405180910390fd5b610ccf3387611cb7565b6001601560003373ffffffffffffffffffffffffffffffffffffffff1673ffffffffffffffffffffffffffffffffffffffff16815260200190815260200160002060006101000a81548160ff0219169083151502179055505050610d31611cd5565b50505050565b823373ffffffffffffffffffffffffffffffffffffffff168173ffffffffffffffffffffffffffffffffffffffff1614610d7557610d74336119f8565b5b610d80848484611cdf565b50505050565b6000806000600a60008681526020019081526020016000206040518060400160405290816000820160009054906101000a900473ffffffffffffffffffffffffffffffffffffffff1673ffffffffffffffffffffffffffffffffffffffff1673ffffffffffffffffffffffffffffffffffffffff1681526020016000820160149054906101000a90046bffffffffffffffffffffffff166bffffffffffffffffffffffff166bffffffffffffffffffffffff16815250509050600073ffffffffffffffffffffffffffffffffffffffff16816000015173ffffffffffffffffffffffffffffffffffffffff1603610f1b5760096040518060400160405290816000820160009054906101000a900473ffffffffffffffffffffffffffffffffffffffff1673ffffffffffffffffffffffffffffffffffffffff1673ffffffffffffffffffffffffffffffffffffffff1681526020016000820160149054906101000a90046bffffffffffffffffffffffff166bffffffffffffffffffffffff166bffffffffffffffffffffffff168152505090505b6000610f25612001565b6bffffffffffffffffffffffff1682602001516bffffffffffffffffffffffff1686610f5191906138d6565b610f5b91906139d9565b90508160000151819350935050509250929050565b610f7861200b565b818160139182610f89929190613bb7565b505050565b610f9733611c3e565b15610fd7576040517f08c379a0000000000000000000000000000000000000000000000000000000008152600401610fce90613599565b60405180910390fd5b3373ffffffffffffffffffffffffffffffffffffffff163273ffffffffffffffffffffffffffffffffffffffff1614611045576040517f08c379a000000000000000000000000000000000000000000000000000000000815260040161103c9061362b565b60405180910390fd5b61104d611c51565b601160019054906101000a900460ff1661109c576040517f08c379a000000000000000000000000000000000000000000000000000000000815260040161109390613cf9565b60405180910390fd5b80600e600201546110ad91906138d6565b3410156110ef576040517f08c379a00000000000000000000000000000000000000000000000000000000081526004016110e69061398a565b60405180910390fd5b600d54811115611134576040517f08c379a000000000000000000000000000000000000000000000000000000000815260040161112b90613d8b565b60405180910390fd5b600c54816111406109cd565b61114a9190613dab565b111561118b576040517f08c379a000000000000000000000000000000000000000000000000000000000815260040161118290613e51565b60405180910390fd5b6111953382611cb7565b61119d611cd5565b50565b6111a861200b565b601160009054906101000a900460ff1615601160006101000a81548160ff021916908315150217905550565b6111dc61200b565b60004790503373ffffffffffffffffffffffffffffffffffffffff166108fc829081150290604051600060405180830381858888f19350505050158015611227573d6000803e3d6000fd5b5050565b601160019054906101000a900460ff1681565b6daaeb6d7670e522a718067333cd4e81565b823373ffffffffffffffffffffffffffffffffffffffff168173ffffffffffffffffffffffffffffffffffffffff161461128e5761128d336119f8565b5b611299848484612089565b50505050565b601160009054906101000a900460ff1681565b601160029054906101000a900460ff1681565b6112cd61200b565b8181601291826112de929190613bb7565b505050565b6112eb61200b565b601160029054906101000a900460ff1615601160026101000a81548160ff021916908315150217905550565b6000611322826120a9565b9050919050565b61133161200b565b80600c8190555050565b60008073ffffffffffffffffffffffffffffffffffffffff168273ffffffffffffffffffffffffffffffffffffffff16036113a2576040517f8f4eb60400000000000000000000000000000000000000000000000000000000815260040160405180910390fd5b67ffffffffffffffff600660008473ffffffffffffffffffffffffffffffffffffffff1673ffffffffffffffffffffffffffffffffffffffff16815260200190815260200160002054169050919050565b6113fb61200b565b6114056000612175565b565b600d5481565b61141561200b565b61141f3382611cb7565b50565b60008060009054906101000a900473ffffffffffffffffffffffffffffffffffffffff16905090565b60606004805461145a906134f6565b80601f0160208091040260200160405190810160405280929190818152602001828054611486906134f6565b80156114d35780601f106114a8576101008083540402835291602001916114d3565b820191906000526020600020905b8154815290600101906020018083116114b657829003601f168201915b5050505050905090565b6114e561200b565b601160019054906101000a900460ff1615601160016101000a81548160ff021916908315150217905550565b8161151b816119f8565b6115258383612239565b505050565b61153261200b565b82600e6000018190555081600e6001018190555080600e60020181905550505050565b833373ffffffffffffffffffffffffffffffffffffffff168173ffffffffffffffffffffffffffffffffffffffff161461159357611592336119f8565b5b61159f85858585612344565b5050505050565b6115ae61200b565b6115b882826123b7565b5050565b60606115c782611999565b611606576040517f08c379a00000000000000000000000000000000000000000000000000000000081526004016115fd90613ebd565b60405180910390fd5b60001515601160029054906101000a900460ff161515036116b3576013805461162e906134f6565b80601f016020809104026020016040519081016040528092919081815260200182805461165a906134f6565b80156116a75780601f1061167c576101008083540402835291602001916116a7565b820191906000526020600020905b81548152906001019060200180831161168a57829003601f168201915b5050505050905061170d565b6000601280546116c2906134f6565b9050116116de576040518060200160405280600081525061170a565b60126116e98361254c565b6040516020016116fa929190613fe8565b6040516020818303038152906040525b90505b919050565b600c5481565b60006002820361172f57600e60000154905061174d565b6001820361174457600e60010154905061174d565b600e6002015490505b919050565b6000600860008473ffffffffffffffffffffffffffffffffffffffff1673ffffffffffffffffffffffffffffffffffffffff16815260200190815260200160002060008373ffffffffffffffffffffffffffffffffffffffff1673ffffffffffffffffffffffffffffffffffffffff16815260200190815260200160002060009054906101000a900460ff16905092915050565b6117ee61200b565b80600d8190555050565b61180061200b565b600073ffffffffffffffffffffffffffffffffffffffff168173ffffffffffffffffffffffffffffffffffffffff160361186f576040517f08c379a000000000000000000000000000000000000000000000000000000000815260040161186690614089565b60405180910390fd5b61187881612175565b50565b61188361200b565b8060148190555050565b60006301ffc9a760e01b827bffffffffffffffffffffffffffffffffffffffffffffffffffffffff191614806118e857506380ac58cd60e01b827bffffffffffffffffffffffffffffffffffffffffffffffffffffffff1916145b806119185750635b5e139f60e01b827bffffffffffffffffffffffffffffffffffffffffffffffffffffffff1916145b9050919050565b60007f2a55205a000000000000000000000000000000000000000000000000000000007bffffffffffffffffffffffffffffffffffffffffffffffffffffffff1916827bffffffffffffffffffffffffffffffffffffffffffffffffffffffff1916148061199257506119918261259c565b5b9050919050565b6000816119a4611c39565b111580156119b3575060015482105b80156119f1575060007c0100000000000000000000000000000000000000000000000000000000600560008581526020019081526020016000205416145b9050919050565b60006daaeb6d7670e522a718067333cd4e73ffffffffffffffffffffffffffffffffffffffff163b1115611af2576daaeb6d7670e522a718067333cd4e73ffffffffffffffffffffffffffffffffffffffff1663c617113430836040518363ffffffff1660e01b8152600401611a6f9291906140a9565b602060405180830381865afa158015611a8c573d6000803e3d6000fd5b505050506040513d601f19601f82011682018060405250810190611ab091906140e7565b611af157806040517fede71dcc000000000000000000000000000000000000000000000000000000008152600401611ae89190612d60565b60405180910390fd5b5b50565b6000611b0082611317565b90508073ffffffffffffffffffffffffffffffffffffffff16611b21612606565b73ffffffffffffffffffffffffffffffffffffffff1614611b8457611b4d81611b48612606565b611752565b611b83576040517fcfb3b94200000000000000000000000000000000000000000000000000000000815260040160405180910390fd5b5b826007600084815260200190815260200160002060000160006101000a81548173ffffffffffffffffffffffffffffffffffffffff021916908373ffffffffffffffffffffffffffffffffffffffff160217905550818373ffffffffffffffffffffffffffffffffffffffff168273ffffffffffffffffffffffffffffffffffffffff167f8c5be1e5ebec7d5bd14f71427d1e84f3dd0314c0f7b2291e5b200ac8c7c3b92560405160405180910390a4505050565b600090565b600080823b905060008111915050919050565b6002600b5403611c96576040517f08c379a0000000000000000000000000000000000000000000000000000000008152600401611c8d90614160565b60405180910390fd5b6002600b81905550565b600082611cad858461260e565b1490509392505050565b611cd1828260405180602001604052806000815250612664565b5050565b6001600b81905550565b6000611cea826120a9565b90508373ffffffffffffffffffffffffffffffffffffffff168173ffffffffffffffffffffffffffffffffffffffff1614611d51576040517fa114810000000000000000000000000000000000000000000000000000000000815260040160405180910390fd5b600080611d5d84612702565b91509150611d738187611d6e612606565b612729565b611dbf57611d8886611d83612606565b611752565b611dbe576040517f59c896be00000000000000000000000000000000000000000000000000000000815260040160405180910390fd5b5b600073ffffffffffffffffffffffffffffffffffffffff168573ffffffffffffffffffffffffffffffffffffffff1603611e25576040517fea553b3400000000000000000000000000000000000000000000000000000000815260040160405180910390fd5b611e32868686600161276d565b8015611e3d57600082555b600660008773ffffffffffffffffffffffffffffffffffffffff1673ffffffffffffffffffffffffffffffffffffffff168152602001908152602001600020600081546001900391905081905550600660008673ffffffffffffffffffffffffffffffffffffffff1673ffffffffffffffffffffffffffffffffffffffff1681526020019081526020016000206000815460010191905081905550611f0b85611ee7888887612773565b7c02000000000000000000000000000000000000000000000000000000001761279b565b600560008681526020019081526020016000208190555060007c0200000000000000000000000000000000000000000000000000000000841603611f915760006001850190506000600560008381526020019081526020016000205403611f8f576001548114611f8e578360056000838152602001908152602001600020819055505b5b505b838573ffffffffffffffffffffffffffffffffffffffff168773ffffffffffffffffffffffffffffffffffffffff167fddf252ad1be2c89b69c2b068fc378daa952ba7f163c4a11628f55a4df523b3ef60405160405180910390a4611ff986868660016127c6565b505050505050565b6000612710905090565b6120136127cc565b73ffffffffffffffffffffffffffffffffffffffff16612031611422565b73ffffffffffffffffffffffffffffffffffffffff1614612087576040517f08c379a000000000000000000000000000000000000000000000000000000000815260040161207e906141cc565b60405180910390fd5b565b6120a483838360405180602001604052806000815250611555565b505050565b600080829050806120b8611c39565b1161213e5760015481101561213d5760006005600083815260200190815260200160002054905060007c010000000000000000000000000000000000000000000000000000000082160361213b575b60008103612131576005600083600190039350838152602001908152602001600020549050612107565b8092505050612170565b505b5b6040517fdf2d9b4200000000000000000000000000000000000000000000000000000000815260040160405180910390fd5b919050565b60008060009054906101000a900473ffffffffffffffffffffffffffffffffffffffff169050816000806101000a81548173ffffffffffffffffffffffffffffffffffffffff021916908373ffffffffffffffffffffffffffffffffffffffff1602179055508173ffffffffffffffffffffffffffffffffffffffff168173ffffffffffffffffffffffffffffffffffffffff167f8be0079c531659141344cd1fd0a4f28419497f9722a3daafe3b4186f6b6457e060405160405180910390a35050565b8060086000612246612606565b73ffffffffffffffffffffffffffffffffffffffff1673ffffffffffffffffffffffffffffffffffffffff16815260200190815260200160002060008473ffffffffffffffffffffffffffffffffffffffff1673ffffffffffffffffffffffffffffffffffffffff16815260200190815260200160002060006101000a81548160ff0219169083151502179055508173ffffffffffffffffffffffffffffffffffffffff166122f3612606565b73ffffffffffffffffffffffffffffffffffffffff167f17307eab39ab6107e8899845ad3d59bd9653f200f220920489ca2b5937696c31836040516123389190612bef565b60405180910390a35050565b61234f848484610d37565b60008373ffffffffffffffffffffffffffffffffffffffff163b146123b15761237a848484846127d4565b6123b0576040517fd1a57ed600000000000000000000000000000000000000000000000000000000815260040160405180910390fd5b5b50505050565b6123bf612001565b6bffffffffffffffffffffffff16816bffffffffffffffffffffffff16111561241d576040517f08c379a00000000000000000000000000000000000000000000000000000000081526004016124149061425e565b60405180910390fd5b600073ffffffffffffffffffffffffffffffffffffffff168273ffffffffffffffffffffffffffffffffffffffff160361248c576040517f08c379a0000000000000000000000000000000000000000000000000000000008152600401612483906142ca565b60405180910390fd5b60405180604001604052808373ffffffffffffffffffffffffffffffffffffffff168152602001826bffffffffffffffffffffffff16815250600960008201518160000160006101000a81548173ffffffffffffffffffffffffffffffffffffffff021916908373ffffffffffffffffffffffffffffffffffffffff16021790555060208201518160000160146101000a8154816bffffffffffffffffffffffff02191690836bffffffffffffffffffffffff1602179055509050505050565b606060a060405101806040526020810391506000825281835b60011561258757600184039350600a81066030018453600a8104905080612565575b50828103602084039350808452505050919050565b60007f01ffc9a7000000000000000000000000000000000000000000000000000000007bffffffffffffffffffffffffffffffffffffffffffffffffffffffff1916827bffffffffffffffffffffffffffffffffffffffffffffffffffffffff1916149050919050565b600033905090565b60008082905060005b84518110156126595761264482868381518110612637576126366142ea565b5b6020026020010151612924565b9150808061265190614319565b915050612617565b508091505092915050565b61266e838361294f565b60008373ffffffffffffffffffffffffffffffffffffffff163b146126fd5760006001549050600083820390505b6126af60008683806001019450866127d4565b6126e5576040517fd1a57ed600000000000000000000000000000000000000000000000000000000815260040160405180910390fd5b81811061269c5781600154146126fa57600080fd5b50505b505050565b60008060006007600085815260200190815260200160002090508092508254915050915091565b600073ffffffffffffffffffffffffffffffffffffffff8316925073ffffffffffffffffffffffffffffffffffffffff821691508382148383141790509392505050565b50505050565b60008060e883901c905060e861278a868684612b0b565b62ffffff16901b9150509392505050565b600073ffffffffffffffffffffffffffffffffffffffff83169250814260a01b178317905092915050565b50505050565b600033905090565b60008373ffffffffffffffffffffffffffffffffffffffff1663150b7a026127fa612606565b8786866040518563ffffffff1660e01b815260040161281c94939291906143b6565b6020604051808303816000875af192505050801561285857506040513d601f19601f820116820180604052508101906128559190614417565b60015b6128d1573d8060008114612888576040519150601f19603f3d011682016040523d82523d6000602084013e61288d565b606091505b5060008151036128c9576040517fd1a57ed600000000000000000000000000000000000000000000000000000000815260040160405180910390fd5b805181602001fd5b63150b7a0260e01b7bffffffffffffffffffffffffffffffffffffffffffffffffffffffff1916817bffffffffffffffffffffffffffffffffffffffffffffffffffffffff191614915050949350505050565b600081831061293c576129378284612b14565b612947565b6129468383612b14565b5b905092915050565b6000600154905060008203612990576040517fb562e8dd00000000000000000000000000000000000000000000000000000000815260040160405180910390fd5b61299d600084838561276d565b600160406001901b178202600660008573ffffffffffffffffffffffffffffffffffffffff1673ffffffffffffffffffffffffffffffffffffffff16815260200190815260200160002060008282540192505081905550612a1483612a056000866000612773565b612a0e85612b2b565b1761279b565b6005600083815260200190815260200160002081905550600080838301905073ffffffffffffffffffffffffffffffffffffffff85169150828260007fddf252ad1be2c89b69c2b068fc378daa952ba7f163c4a11628f55a4df523b3ef600080a4600183015b818114612ab557808360007fddf252ad1be2c89b69c2b068fc378daa952ba7f163c4a11628f55a4df523b3ef600080a4600181019050612a7a565b5060008203612af0576040517f2e07630000000000000000000000000000000000000000000000000000000000815260040160405180910390fd5b806001819055505050612b0660008483856127c6565b505050565b60009392505050565b600082600052816020526040600020905092915050565b60006001821460e11b9050919050565b6000604051905090565b600080fd5b600080fd5b60007fffffffff0000000000000000000000000000000000000000000000000000000082169050919050565b612b8481612b4f565b8114612b8f57600080fd5b50565b600081359050612ba181612b7b565b92915050565b600060208284031215612bbd57612bbc612b45565b5b6000612bcb84828501612b92565b91505092915050565b60008115159050919050565b612be981612bd4565b82525050565b6000602082019050612c046000830184612be0565b92915050565b600081519050919050565b600082825260208201905092915050565b60005b83811015612c44578082015181840152602081019050612c29565b60008484015250505050565b6000601f19601f8301169050919050565b6000612c6c82612c0a565b612c768185612c15565b9350612c86818560208601612c26565b612c8f81612c50565b840191505092915050565b60006020820190508181036000830152612cb48184612c61565b905092915050565b6000819050919050565b612ccf81612cbc565b8114612cda57600080fd5b50565b600081359050612cec81612cc6565b92915050565b600060208284031215612d0857612d07612b45565b5b6000612d1684828501612cdd565b91505092915050565b600073ffffffffffffffffffffffffffffffffffffffff82169050919050565b6000612d4a82612d1f565b9050919050565b612d5a81612d3f565b82525050565b6000602082019050612d756000830184612d51565b92915050565b612d8481612d3f565b8114612d8f57600080fd5b50565b600081359050612da181612d7b565b92915050565b60008060408385031215612dbe57612dbd612b45565b5b6000612dcc85828601612d92565b9250506020612ddd85828601612cdd565b9150509250929050565b612df081612cbc565b82525050565b6000602082019050612e0b6000830184612de7565b92915050565b600080fd5b600080fd5b600080fd5b60008083601f840112612e3657612e35612e11565b5b8235905067ffffffffffffffff811115612e5357612e52612e16565b5b602083019150836020820283011115612e6f57612e6e612e1b565b5b9250929050565b60008060008060608587031215612e9057612e8f612b45565b5b6000612e9e87828801612cdd565b9450506020612eaf87828801612cdd565b935050604085013567ffffffffffffffff811115612ed057612ecf612b4a565b5b612edc87828801612e20565b925092505092959194509250565b600080600060608486031215612f0357612f02612b45565b5b6000612f1186828701612d92565b9350506020612f2286828701612d92565b9250506040612f3386828701612cdd565b9150509250925092565b60008060408385031215612f5457612f53612b45565b5b6000612f6285828601612cdd565b9250506020612f7385828601612cdd565b9150509250929050565b6000604082019050612f926000830185612d51565b612f9f6020830184612de7565b9392505050565b60008083601f840112612fbc57612fbb612e11565b5b8235905067ffffffffffffffff811115612fd957612fd8612e16565b5b602083019150836001820283011115612ff557612ff4612e1b565b5b9250929050565b6000806020838503121561301357613012612b45565b5b600083013567ffffffffffffffff81111561303157613030612b4a565b5b61303d85828601612fa6565b92509250509250929050565b6000819050919050565b600061306e61306961306484612d1f565b613049565b612d1f565b9050919050565b600061308082613053565b9050919050565b600061309282613075565b9050919050565b6130a281613087565b82525050565b60006020820190506130bd6000830184613099565b92915050565b6000602082840312156130d9576130d8612b45565b5b60006130e784828501612d92565b91505092915050565b6130f981612bd4565b811461310457600080fd5b50565b600081359050613116816130f0565b92915050565b6000806040838503121561313357613132612b45565b5b600061314185828601612d92565b925050602061315285828601613107565b9150509250929050565b60008060006060848603121561317557613174612b45565b5b600061318386828701612cdd565b935050602061319486828701612cdd565b92505060406131a586828701612cdd565b9150509250925092565b600080fd5b7f4e487b7100000000000000000000000000000000000000000000000000000000600052604160045260246000fd5b6131ec82612c50565b810181811067ffffffffffffffff8211171561320b5761320a6131b4565b5b80604052505050565b600061321e612b3b565b905061322a82826131e3565b919050565b600067ffffffffffffffff82111561324a576132496131b4565b5b61325382612c50565b9050602081019050919050565b82818337600083830152505050565b600061328261327d8461322f565b613214565b90508281526020810184848401111561329e5761329d6131af565b5b6132a9848285613260565b509392505050565b600082601f8301126132c6576132c5612e11565b5b81356132d684826020860161326f565b91505092915050565b600080600080608085870312156132f9576132f8612b45565b5b600061330787828801612d92565b945050602061331887828801612d92565b935050604061332987828801612cdd565b925050606085013567ffffffffffffffff81111561334a57613349612b4a565b5b613356878288016132b1565b91505092959194509250565b600061336d82612d1f565b9050919050565b61337d81613362565b811461338857600080fd5b50565b60008135905061339a81613374565b92915050565b60006bffffffffffffffffffffffff82169050919050565b6133c1816133a0565b81146133cc57600080fd5b50565b6000813590506133de816133b8565b92915050565b600080604083850312156133fb576133fa612b45565b5b60006134098582860161338b565b925050602061341a858286016133cf565b9150509250929050565b6000806040838503121561343b5761343a612b45565b5b600061344985828601612d92565b925050602061345a85828601612d92565b9150509250929050565b6000819050919050565b61347781613464565b811461348257600080fd5b50565b6000813590506134948161346e565b92915050565b6000602082840312156134b0576134af612b45565b5b60006134be84828501613485565b91505092915050565b7f4e487b7100000000000000000000000000000000000000000000000000000000600052602260045260246000fd5b6000600282049050600182168061350e57607f821691505b602082108103613521576135206134c7565b5b50919050565b7f46616e7461437574696573203a3a205468652063616c6c65722063616e6e6f7460008201527f20626520616e6f7468657220636f6e7472616374000000000000000000000000602082015250565b6000613583603483612c15565b915061358e82613527565b604082019050919050565b600060208201905081810360008301526135b281613576565b9050919050565b7f46616e7461437574696573203a3a2050726f7869657320617265206e6f74206160008201527f6c6c6f7765640000000000000000000000000000000000000000000000000000602082015250565b6000613615602683612c15565b9150613620826135b9565b604082019050919050565b6000602082019050818103600083015261364481613608565b9050919050565b7f46616e7461437574696573203a3a2050726573616c65206d696e74206973206e60008201527f6f74206163746976650000000000000000000000000000000000000000000000602082015250565b60006136a7602983612c15565b91506136b28261364b565b604082019050919050565b600060208201905081810360008301526136d68161369a565b9050919050565b7f46616e7461437574696573203a3a20596f7520616c726561647920636c61696d60008201527f656420796f757220746f6b656e73000000000000000000000000000000000000602082015250565b6000613739602e83612c15565b9150613744826136dd565b604082019050919050565b600060208201905081810360008301526137688161372c565b9050919050565b60008160601b9050919050565b60006137878261376f565b9050919050565b60006137998261377c565b9050919050565b6137b16137ac82612d3f565b61378e565b82525050565b6000819050919050565b6137d26137cd82612cbc565b6137b7565b82525050565b60006137e482866137a0565b6014820191506137f482856137c1565b60208201915061380482846137c1565b602082019150819050949350505050565b7f46616e7461437574696573203a3a20596f7520617265206e6f742061646d697460008201527f74656420746f207468652070726573616c650000000000000000000000000000602082015250565b6000613871603283612c15565b915061387c82613815565b604082019050919050565b600060208201905081810360008301526138a081613864565b9050919050565b7f4e487b7100000000000000000000000000000000000000000000000000000000600052601160045260246000fd5b60006138e182612cbc565b91506138ec83612cbc565b92508282026138fa81612cbc565b91508282048414831517613911576139106138a7565b5b5092915050565b7f46616e7461437574696573203a3a20496e73756666696369656e742066756e6460008201527f7300000000000000000000000000000000000000000000000000000000000000602082015250565b6000613974602183612c15565b915061397f82613918565b604082019050919050565b600060208201905081810360008301526139a381613967565b9050919050565b7f4e487b7100000000000000000000000000000000000000000000000000000000600052601260045260246000fd5b60006139e482612cbc565b91506139ef83612cbc565b9250826139ff576139fe6139aa565b5b828204905092915050565b600082905092915050565b60008190508160005260206000209050919050565b60006020601f8301049050919050565b600082821b905092915050565b600060088302613a777fffffffffffffffffffffffffffffffffffffffffffffffffffffffffffffffff82613a3a565b613a818683613a3a565b95508019841693508086168417925050509392505050565b6000613ab4613aaf613aaa84612cbc565b613049565b612cbc565b9050919050565b6000819050919050565b613ace83613a99565b613ae2613ada82613abb565b848454613a47565b825550505050565b600090565b613af7613aea565b613b02818484613ac5565b505050565b5b81811015613b2657613b1b600082613aef565b600181019050613b08565b5050565b601f821115613b6b57613b3c81613a15565b613b4584613a2a565b81016020851015613b54578190505b613b68613b6085613a2a565b830182613b07565b50505b505050565b600082821c905092915050565b6000613b8e60001984600802613b70565b1980831691505092915050565b6000613ba78383613b7d565b9150826002028217905092915050565b613bc18383613a0a565b67ffffffffffffffff811115613bda57613bd96131b4565b5b613be482546134f6565b613bef828285613b2a565b6000601f831160018114613c1e5760008415613c0c578287013590505b613c168582613b9b565b865550613c7e565b601f198416613c2c86613a15565b60005b82811015613c5457848901358255600182019150602085019450602081019050613c2f565b86831015613c715784890135613c6d601f891682613b7d565b8355505b6001600288020188555050505b50505050505050565b7f46616e7461437574696573203a3a205075626c6963206d696e74206973206e6f60008201527f7420616374697665000000000000000000000000000000000000000000000000602082015250565b6000613ce3602883612c15565b9150613cee82613c87565b604082019050919050565b60006020820190508181036000830152613d1281613cd6565b9050919050565b7f46616e7461437574696573203a3a20457863656564696e67206d6178696d756d60008201527f20616d6f756e7420706572207472616e73616374696f6e000000000000000000602082015250565b6000613d75603783612c15565b9150613d8082613d19565b604082019050919050565b60006020820190508181036000830152613da481613d68565b9050919050565b6000613db682612cbc565b9150613dc183612cbc565b9250828201905080821115613dd957613dd86138a7565b5b92915050565b7f46616e7461437574696573203a3a2043616e6e6f74206d696e74206265796f6e60008201527f64206d617820737570706c790000000000000000000000000000000000000000602082015250565b6000613e3b602c83612c15565b9150613e4682613ddf565b604082019050919050565b60006020820190508181036000830152613e6a81613e2e565b9050919050565b7f46616e74614375746965733a20546f6b656e206e6f7420666f756e6400000000600082015250565b6000613ea7601c83612c15565b9150613eb282613e71565b602082019050919050565b60006020820190508181036000830152613ed681613e9a565b9050919050565b600081905092915050565b60008154613ef5816134f6565b613eff8186613edd565b94506001821660008114613f1a5760018114613f2f57613f62565b60ff1983168652811515820286019350613f62565b613f3885613a15565b60005b83811015613f5a57815481890152600182019150602081019050613f3b565b838801955050505b50505092915050565b6000613f7682612c0a565b613f808185613edd565b9350613f90818560208601612c26565b80840191505092915050565b7f2e6a736f6e000000000000000000000000000000000000000000000000000000600082015250565b6000613fd2600583613edd565b9150613fdd82613f9c565b600582019050919050565b6000613ff48285613ee8565b91506140008284613f6b565b915061400b82613fc5565b91508190509392505050565b7f4f776e61626c653a206e6577206f776e657220697320746865207a65726f206160008201527f6464726573730000000000000000000000000000000000000000000000000000602082015250565b6000614073602683612c15565b915061407e82614017565b604082019050919050565b600060208201905081810360008301526140a281614066565b9050919050565b60006040820190506140be6000830185612d51565b6140cb6020830184612d51565b9392505050565b6000815190506140e1816130f0565b92915050565b6000602082840312156140fd576140fc612b45565b5b600061410b848285016140d2565b91505092915050565b7f5265656e7472616e637947756172643a207265656e7472616e742063616c6c00600082015250565b600061414a601f83612c15565b915061415582614114565b602082019050919050565b600060208201905081810360008301526141798161413d565b9050919050565b7f4f776e61626c653a2063616c6c6572206973206e6f7420746865206f776e6572600082015250565b60006141b6602083612c15565b91506141c182614180565b602082019050919050565b600060208201905081810360008301526141e5816141a9565b9050919050565b7f455243323938313a20726f79616c7479206665652077696c6c2065786365656460008201527f2073616c65507269636500000000000000000000000000000000000000000000602082015250565b6000614248602a83612c15565b9150614253826141ec565b604082019050919050565b600060208201905081810360008301526142778161423b565b9050919050565b7f455243323938313a20696e76616c696420726563656976657200000000000000600082015250565b60006142b4601983612c15565b91506142bf8261427e565b602082019050919050565b600060208201905081810360008301526142e3816142a7565b9050919050565b7f4e487b7100000000000000000000000000000000000000000000000000000000600052603260045260246000fd5b600061432482612cbc565b91507fffffffffffffffffffffffffffffffffffffffffffffffffffffffffffffffff8203614356576143556138a7565b5b600182019050919050565b600081519050919050565b600082825260208201905092915050565b600061438882614361565b614392818561436c565b93506143a2818560208601612c26565b6143ab81612c50565b840191505092915050565b60006080820190506143cb6000830187612d51565b6143d86020830186612d51565b6143e56040830185612de7565b81810360608301526143f7818461437d565b905095945050505050565b60008151905061441181612b7b565b92915050565b60006020828403121561442d5761442c612b45565b5b600061443b84828501614402565b9150509291505056fea264697066735822122046c4fc30164f5163e2fe269c1f17722a18f4ecec50b7338f060b50059dc2108b64736f6c63430008110033",
  "linkReferences": {},
  "deployedLinkReferences": {}
}